:020000040800F2
:10000000000400206D0300081F420008C93E0008DC
:100010001D42000859050008D949000800000000E9
:10002000000000000000000000000000654400081F
:100030008107000800000000214200086744000812
:100040008703000887030008870300088703000868
:100050008703000887030008870300088703000858
:100060008703000887030008870300085D05000870
:100070008703000887030008870300088703000838
:100080008703000887030008870300088703000828
:100090008703000887030008870300088703000818
:1000A0008703000887030008870300088703000808
:1000B00087030008870300088703000887030008F8
:1000C00087030008870300088703000887030008E8
:1000D00087030008870300088703000887030008D8
:1000E000870300088703000800000000870300085A
:1000F00087030008870300088703000887030008B8
:1001000087030008870300088703000887030008A7
:100110008703000887030008870300088703000897
:100120008703000887030008870300088703000887
:100130008703000887030008870300088703000877
:1001400000000000000000000000000000000000AF
:100150008703000887030008870300088703000857
:100160008703000887030008870300088703000847
:1001700087030008870300088703000800000000C9
:100180008703000887030008870300088703000827
:100190008703000887030008870300088703000817
:1001A0008703000887030008870300080000000099
:1001B00087030008870300088703000887030008F7
:1001C000870300088703000800000000000000000B
:1001D000000000000000000087030008000000008D
:1001E000000000000000000000000000000000000F
:1001F00000000000000000008703000887030008DB
:100200008703000887030008000000008703000838
:100210008703000887030008870300088703000896
:1002200087030008000000008703000800000000AA
:100230008703000887030008000000008703000808
:100240008703000887030008870300088703000866
:100250008703000887030008870300088703000856
:100260008703000887030008870300088703000846
:1002700087030008870300088703000800000000C8
:100280008703000887030008870300088703000826
:10029000000000008703000887030008000000003A
:1002A0000000000087030008870300088703000898
:1002B00087030008870300088703000887030008F6
:1002C00087030008870300088703000800F002F88E
:1002D00000F03CF80AA090E8000C82448344AAF1A4
:1002E0000107DA4501D100F031F8AFF2090EBAE8A2
:1002F0000F0013F0010F18BFFB1A43F0010318475A
:10030000AC470000DC470000103A24BF78C878C131
:10031000FAD8520724BF30C830C144BF04680C600B
:10032000704700000023002400250026103A28BF53
:1003300078C1FBD8520728BF30C148BF0B60704757
:100340001FB504F0A1FB1FBD10B510BD00F058F89B
:100350001146FFF7F5FF04F051FB00F076F803B407
:10036000FFF7F2FF03BC00F07DF80000094880476A
:1003700009480047FEE7FEE7FEE7FEE7FEE7FEE787
:10038000FEE7FEE7FEE7FEE704480549054A064B9F
:100390007047000001450008CD020008000200245B
:1003A0000004002000040024000000204FF00002A0
:1003B00000B5134694469646203922BFA0E80C505B
:1003C000A0E80C50B1F12001BFF4F7AF090728BF36
:1003D000A0E80C5048BF0CC05DF804EB890028BFB2
:1003E00040F8042B08BF704748BF20F8022B11F0DB
:1003F000804F18BF00F8012B704770477047704757
:10040000754600F02BF8AE4605006946534620F0CD
:100410000700854618B020B5FFF7B6FFBDE82040BD
:100420004FF000064FF000074FF000084FF0000BB0
:1004300021F00701AC46ACE8C009ACE8C009ACE863
:10044000C009ACE8C0098D46704710B50446AFF34B
:1004500000802046BDE81040FFF781BF004870478C
:100460009C01002401491820ABBEFEE726000200D3
:100470007047000010B5324904460068884202D037
:10048000304A904202D1D1F8080302E02E48D0F859
:10049000080310F4403F10D003F044F86168B1F550
:1004A000803F06D0B1F5003F03D0B1F5403F26D1E3
:1004B00001E0090C17E0800821E000214FF4002042
:1004C00002F016F961688A03920B18D18A140C2A7B
:1004D00015D2DFE802F0140606060606060B0D0F1D
:1004E0001113890C4900B0FBF1F008E0000906E0A7
:1004F000400904E0800902E0C00900E0000A134955
:100500004008884204D82068816821F4407108E0DE
:100510000F49884207D82068816821F4407141F46E
:100520008071816010BD0B4988422068816804D8C1
:1005300021F4407141F40071F3E741F44071F0E7B8
:10054000002002400021024000600258105E5F005F
:1005500020BCBE0040787D01FEE70000014800F0AD
:1005600031BE000024010024294A016891423AD09A
:10057000274A1832914236D0254A3032914232D041
:10058000234A483291422ED0214A603291422AD0E9
:100590001F4A7832914226D01D4A9032914222D091
:1005A0001B4AA83291421ED01A4A91421BD0194AC6
:1005B0001832914217D0174A3032914213D0154A5F
:1005C000483291420FD0134A603291420BD0114A07
:1005D0007832914207D00F4A9032914203D00D4AAF
:1005E000A832914211D1CAB21823103AB2FBF3F2E9
:1005F0006FF30901032A02F00703074AD25CC265C0
:1006000000D9091D81650846704721F0FF01F9E70F
:100610001000024010040240924A000830B5224AFD
:10062000012301689142CAB21BD01F4C1434A1426D
:1006300017D01D4C2834A14213D01B4C3C34A1428E
:100640000FD0194C5034A1420BD0174C6434A14246
:1006500007D0154C7834A14203D0134C8C34A142FE
:100660000CD11421114C083AB2FBF1F10F4A80323F
:1006700001F01F0504EB8101AB4010E00C4D182484
:10068000103A0D44B2FBF4F1A82D00D80831094A04
:1006900001F01F0402EB8101064AA3408032603062
:1006A00080E80E0030BD000008540258005802587F
:1006B000F0FBFDBF0008024010B50279531E072B66
:1006C0002DD8174C0168A1421BD0154C1434A142FF
:1006D00017D0134C2834A14213D0114C3C34A14202
:1006E0000FD00F4C5034A1420BD00D4C6434A142BA
:1006F00007D00B4C7834A14203D0094C8C34A14272
:1007000003D10849074C443102E00749064C443103
:1007100004EB8202C0E91B2101219940416710BD11
:1007200008540258FC580258FC08024010B583696E
:100730004FF0C074826A0146002053B1B3F5005FE8
:1007400015D072B1012A0CD0022A0AD0032A09D18D
:1007500004E01AB1012A06D0022A03D1C96AC901EC
:1007600000D5012010BDC96AA142FAD010BD002AEF
:10077000F7D0012AF2D0022AF3D0032AF3D010BD19
:10078000704772B6FEE700002DE9F0470F4690F87B
:100790005C109CB0044601294FF0000915D00026DA
:1007A000DFF8F880012084F85C001896199621681B
:1007B00041450ED13A4D0095284603F094FB824600
:1007C000206803F090FB60B10EE002201CB0BDE891
:1007D000F087206E84F85C6040F0200020660120E5
:1007E000F4E7BAF1000F09D0216E4FF0010941F092
:1007F00020002066484684F85C60E7E720684146B0
:10080000884201D0A84201D1264800E0264840F69F
:100810001F72D7F800C0254BBCF1000F23D0D0F8D1
:1008200008C0D7F804802CF4404C4CEA080CC0F8FF
:1008300008C0D4F800C08C4501D0AC4507D1896808
:10084000AB6801F0010103F00103194302E099686C
:1008500001F001010029CDD1BD68396883682943C1
:100860009343194317E0876827F440478760276858
:100870008F4201D0AF4207D18968AB6801F0010116
:1008800003F00103194302E0996801F00101002916
:10089000B0D1816891438160ACE700000020024044
:1008A0000021024000230240006302580060025809
:1008B0002DE9F84F4FF0000B0446FE4E0D46CDF8E3
:1008C00000B0DA4690F85C00FB4F012808D04FF0EA
:1008D000010984F85C90206803F001FB18B154E230
:1008E0000220BDE8F88F286800280FDB2168B1429C
:1008F0000CD0CA69030327D090FAA0F0B0FA80F0B8
:1009000000F01F0309FA03F00243CA61D5E900129F
:100910004FF00C0C20681F23C1F384610CEA921C79
:1009200002F01F02604493409140026B9A430A43D5
:100930000263206803F0D3FA8046206803F0CBFA04
:1009400058EA000003D048E1C0F38460D8E7AA6801
:100950002968206803F0CBFA2068B04204D1C2684D
:100960006969C2F3C1020BE0D44A1268B9EB127F85
:1009700002D0C168C90605D4C2686969C2F382029F
:10098000520004E0C268696902F010025208914006
:100990002A69042A5AD02B6800EB8202B04202F185
:1009A000600207D103F0F8401368084340F00040AC
:1009B000106008E0D2F800C003F0F84008430CF0E3
:1009C0000041014311602068B0421CD12A69E969E5
:1009D00000EB8200026E22F080720A43026695F8F4
:1009E000201020682A6901290AD00021B042AAD12A
:1009F00000EB8200026E22F000720A430266ECE015
:100A00004FF00071F2E795F821202969012A17D0EB
:100A10005FF0000200EB8100016E21F00041114304
:100A20000166297E20682A6901290CD0002103690A
:100A300002F01F02914023F4F0420A430261CCE02D
:100A40004FF00042E6E74FF40061F0E7B04273D1A7
:100A5000002103F03AFA000320684FF000016DD046
:100A600003F033FA90FAA0F0B0FA80F1286802039C
:100A700069D090FAA0F0B0FA80F0814204D100224F
:100A80002068114603F042FA2068012103F01DFAA4
:100A9000000320684FF0010158D003F016FA90FAD5
:100AA000A0F0B0FA80F12868020354D090FAA0F0C8
:100AB000B0FA80F0814204D120680022012103F0C5
:100AC00025FA2068022103F000FA000320684FF0A5
:100AD000020143D003F0F9F990FAA0F0B0FA80F1E6
:100AE000286802033FD090FAA0F0B0FA80F081426B
:100AF00004D120680022022103F008FA20680321B3
:100B000003F0E3F9000320684FF003012ED003F057
:100B1000DCF990FAA0F0B0FA80F1286802032AD03C
:100B200090FAA0F0B0FA80F0814256D120680022FD
:100B3000032103F0EBF950E020E0FFE703F0C5F9F3
:100B4000C0F3846192E7C0F3846096E703F0BDF9D7
:100B5000C0F38461A7E7C0F38460ABE703F0B5F9A5
:100B6000C0F38461BCE7C0F38460C0E703F0ADF973
:100B7000C0F38461D1E7C0F38460D5E7016E2A78C1
:100B800001F0F841B1EB826F03D1016E21F0004119
:100B9000016620682978426E02F0F842B2EB816F5C
:100BA00003D1416E21F00041416620682978826EB0
:100BB00002F0F842B2EB816F03D1816E21F0004167
:100BC000816620682978C26E02F0F842B2EB816F2C
:100BD00003D1C16E21F00041C1662068816811F027
:100BE000010F71D1364AB042EB6829680FD1D0F8B5
:100BF000B0C003F01808C1F3130322FA08F20A4048
:100C00002CEA030C4CEA020CC0F8B0C00EE0D0F89D
:100C1000C0C003F01808C1F3130322FA08F20A4017
:100C20002CEA030C4CEA020CC0F8C0C02548E96865
:100C300081427DD1286801031BD090FAA0F1B1FA5E
:100C400081F1491C01F01F0109294FEA00313CD80C
:100C5000002911D090FAA0F1B1FA81F101F101015E
:100C600001F01F0109FA01F209D100BFC0F384614C
:100C700009E0C0F38461E4E7C0F38461EEE790FA31
:100C8000A0F1B1FA81F101F1010101F01F0142EA85
:100C9000816102D1C0F3846003E090FAA0F0B0FA61
:100CA00080F000F1010000F01F0000EB400041EA7D
:100CB000005140E000600258002102400010005C3A
:100CC000FFFF0F000000FF4765E000290FD000BFC5
:100CD00090FAA0F1B1FA81F101F1010101F01F01D7
:100CE00009FA01F206D100BFC0F3846106E0C0F347
:100CF0008461F1E790FAA0F1B1FA81F101F101010B
:100D000001F01F0142EA816102D1C0F3846003E077
:100D100090FAA0F0B0FA80F0434A00F1010000F030
:100D20001F0000EB400002EB005041EA000100E030
:100D300005E041F00071AA68206803F0D8F8D5F802
:100D400000C0BCF1000F26DA384B20683849DFF8C4
:100D5000E490984201D0B84201D10A4600E04A46E8
:100D60009268984202F0E07201D0B84209D19D68C1
:100D7000D7F8088005F0010508F0010845EA0805E4
:100D800002E0B56805F001054DB1216E4FF0010A92
:100D900041F020002066504684F85CB0A1E5264D65
:100DA000AC451CD115021AD4B042F4D1984202D0FD
:100DB000B84200D049468B6842F4000023F0E0724C
:100DC00002438A601E491D480968B1FBF0F04000EB
:100DD000801C00E0401E00900028FBD1DBE7194D8D
:100DE000AC450CD1D5010AD4B042D4D1984202D03E
:100DF000B84200D049468B6842F080700EE0124D38
:100E0000AC45C8D15502C6D4B042C4D1984202D034
:100E1000B84200D049468B6842F4800023F0E0726B
:100E200002438A60B7E70000000020FE0020024075
:100E30000023024000630258000052C7400D030027
:100E40000C000024000021C3000084CB2DE9F843EE
:100E50004FF0000504002E46009502D0206E18B118
:100E600008E00120BDE8F883204600F043F96566FC
:100E700084F85C5020688168C1F3407119B18168C1
:100E80008E4A1140816020688168C1F3007181B988
:100E900081688B4A114041F0805181608A498948BC
:100EA0000968B1FBF0F0401C00E0401E00900028F3
:100EB000FBD120688168C1F3007141B9216E012620
:100EC00041F010012166616E41F00101616603F09D
:100ED00006F8216EC90600D420B1206E012640F02C
:100EE0001000E0E0206E20F4807040F002002066E8
:100EF00020688168754D11F0010F1ED1744B754A41
:100F0000984201D0904207D19968976801F0010199
:100F100007F00107394302E0A96801F0010161B956
:100F2000984201D0904201D16B4800E06B48826842
:100F3000616822F47C120A4382602168A9421FD1B1
:100F4000637ED4E90207E26B5B033A43082805D0CD
:100F50000C280FD01C280FD018280FD05FF00000ED
:100F600000F00C0794F8200043EA47031A4342EAD2
:100F700000400FE00420F3E70820F1E71C20EFE732
:100F8000627E94F82030A768E06B520342EA034285
:100F90003843104394F82020012A04D1A28C504BEE
:100FA00003EB42421043A26A2AB1E36A02F4787268
:100FB000024343EA0200CA68A9420BD1494B1A40D6
:100FC0000243CA602068626B016921F040611143ED
:100FD000016103E0444B1A400243CA60206802F0FA
:100FE0007EFF0746206802F076FF07434ED1206857
:100FF000A946484506D1217E94F83820890341EA64
:10100000420103E0227E216B41EA8231C26844F250
:1010100003039A430A43C26094F8440001282068FD
:1010200003D0016921F0010122E048450ED1D4E945
:10103000121CD4E9143502692C4F41EA0C012B43F0
:101040003A401943114341F0010111E0D4E913176B
:10105000B4F848C0DFF89880636D026908EB0C4C67
:10106000224D394343EA0C036D1E2A4019431143B4
:1010700001612068236C026922F070421A43026108
:101080002068484502D02046FFF7F4F9206901287E
:1010900020680BD0016B21F00F010163206E20F05E
:1010A000020040F0010020663046DBE6E269016B99
:1010B000521E21F00F011143EFE70000C0FFFF5F58
:1010C000C0FFFF7F400D03000C00002400600258A9
:1010D0000020024000210240002302400063025829
:1010E0000000FEFF0740F0FF03C0F0FF1FF800FC08
:1010F0000100FFFFF0B5B5B0064614212EA8FFF79A
:1011000055F9B8216846FFF751F9294930688842F6
:101110004CD1022000224FF400210091CDE90120A2
:101120001023154606AACDE90330C024059082E8B5
:10113000310068460995289501F028FC08B1FFF7B1
:1011400020FB1C48016841F020010160006800F0AC
:101150002000339017480830016841F00101016018
:1011600000682EAA032100F001003390F02082E8ED
:10117000230011482EA900F077FD104C09211048DA
:101180004FF4807C021584E82300D700C4E90352A1
:10119000C3142046C4E907C56562C4E9053700F0F9
:1011A00085FB08B1FFF7EDFAB465A66335B0F0BD75
:1011B00000200240D84402580000025824010024B4
:1011C000100002402DE9FC5F0446F74E0020DFF8D6
:1011D000D88300904FF41652F44808F11808A56D12
:1011E000DFF8C493DFF8C0A3016809F13009206873
:1011F0000AF1480AB1FBF2F1B04201912F68D5F82B
:1012000000C0DFF8ACB335D04146884232D0484503
:1012100030D050452ED058452CD0E5491831884261
:1012200028D0E3493031884224D0E149483188420E
:1012300020D0E04988421DD0DE491831884219D0BB
:10124000DC493031884215D0DA494831884211D022
:10125000DFF860E30EF1600E70450BD0D54A7832AE
:10126000904207D0D34B9033984203D0D149A83154
:1012700088427DD194F85C20082102F01F0201FA17
:1012800002F23A424AD0B04232D0404530D04845CE
:101290002ED050452CD058452AD0C54A18329042FD
:1012A00026D0C34A3032904222D0C14A48329042BE
:1012B0001ED0C04A90421BD0BE4A1832904217D06E
:1012C000BC4A3032904213D0BA4A483290420FD0D2
:1012D000B84A603290420BD0B64A7832904207D07A
:1012E000B44A9032904203D0B24AA832904203D11D
:1012F000026802F0040202E0026802F008026AB129
:10130000026822F00402026094F85C0000F01F0002
:101310008140A960606D40F00100606594F85C0058
:10132000012100F01F008140394240D02068B042C6
:1013300034D0404532D0484530D050452ED0584565
:101340002CD09B4A1832904228D0994A3032904291
:1013500024D0974A4832904220D0964A90421DD0DD
:10136000944A1832904219D0924A3032904200E0AA
:10137000AFE113D08F4A483290420FD08D4A60328D
:1013800090420BD08B4A7832904207D0894A9032F3
:10139000904203D0874AA83290427DD1406910F034
:1013A000800F04D0A960606D40F00200606594F881
:1013B0005C00042100F01F00814039423ED02068CB
:1013C000B04232D0404530D048452ED050452CD088
:1013D00058452AD0764A1832904226D0744A303284
:1013E000904222D0724A483290421ED0714A9042B6
:1013F0001BD0704A1832904217D06E4A3032904259
:1014000013D06C4A483290420FD06A4A6032904200
:101410000BD0684A7832904207D0664A90329042A8
:1014200003D0644AA83290424ED1006810F0020FF7
:1014300004D0A960606D40F00400606594F85C0021
:10144000102100F01F008140394258D02068B0427E
:1014500034D0404532D0484530D050452ED0584544
:101460002CD0534A1832904228D0514A3032904200
:1014700024D04F4A4832904220D04E4A90421DD04C
:101480004C4A1832904219D04A4A3032904215D014
:10149000484A4832904200E014E00FD0454A60329A
:1014A00090420BD0434A7832904207D0414A903262
:1014B000904203D03F4AA832904207D1006800F022
:1014C000080006E0006872E70068B7E7006800F00F
:1014D0000400A0B1A96020680168490304D5006830
:1014E000000308D5A16C07E00168C90503D40168B1
:1014F00021F008010160216C09B12046884794F869
:101500005C00202100F01F008140394279D0206822
:10151000B04232D0404530D048452ED050452CD036
:1015200058452AD0224A1832904226D0204A3032DA
:10153000904222D01E4A483290421ED01D4A90420C
:101540001BD01C4A1832904217D01A4A30329042AF
:1015500013D0184A483290420FD0164A6032904257
:101560000BD0144A7832904207D0124A90329042FF
:1015700003D0104AA832904203D1006800F0100056
:1015800002E0006800F00200B0B3A96094F83500F2
:101590000428206801680FD049037ED50068000345
:1015A0002BD4616C2AE00000100002400C000024E3
:1015B000700002401004024021F016010160206812
:1015C000416921F080014161206C08B9A06C20B113
:1015D0002068016821F00801016094F85C303F2127
:1015E000012003F01F0300229940A96084F8350010
:1015F00084F83420216D65E003E0E16B09B12046F9
:101600008847606D00287DD0606DC00759D0206884
:10161000042184F83510B0422BD0404529D04845EC
:1016200027D0504525D0584523D09D49884220D009
:101630009B49183188421CD099493031884218D0D2
:101640009849884215D097491831884211D0954958
:10165000303188420DD093494831884209D09149B0
:101660006031884205D08F497831884201D08D4958
:101670009031016821F00101016020680099019A10
:10168000491C0091914202D80168C907F6D100684F
:10169000C00710D003200FE0FFE70168C905ACD4F4
:1016A00003680121002223F01003036084F8351041
:1016B00084F83420A1E7012084F83500002084F864
:1016C0003400E16C00291DD002B02046BDE8F05F77
:1016D0000847754988421DD073491431884219D092
:1016E00071492831884215D06F493C31884211D068
:1016F0006D49503188420DD06B496431884209D020
:10170000694900E084E07831884203D066498C3131
:1017100088427DD194F85C800427016808F01F0896
:1017200007FA08F717EA0C0F009746D04F0744D581
:1017300000980F04686003D5C8033CD4A16CC1E7CE
:10174000880638D42068B0422DD055496039884287
:1017500029D0484527D0504525D0584523D0504959
:10176000884220D04E49183188421CD04C49303133
:10177000884218D04B49884215D04A4918318842CE
:1017800011D04849303188420DD04649483188420D
:1017900009D0704507D0904205D0984203D0414906
:1017A000A831884203D1016821F0080102E00168F4
:1017B00021F004010160216C84E7022707FA08F791
:1017C00017EA0C0F00974ED08F074CD500980F04E6
:1017D000686003D5C80344D4616C73E7880640D4BD
:1017E0002068B0422FD02E49603988422BD048451E
:1017F00029D0504527D0584525D02949884222D0A4
:101800002749183188421ED025493031884200E0EE
:1018100044E018D02349884215D022491831884223
:1018200011D02049303188420DD01E4948318842BC
:1018300009D0704507D0904205D0984203D019498D
:10184000A831884203D1016821F0140102E0016847
:1018500021F00A010160012184F83510002084F88C
:101860003400E16B2EE7082202FA08F212EA0C0FAC
:1018700014D0090712D5016821F00E01016094F817
:101880005C100120002201F01F0100FA01F16960E3
:10189000606584F8350084F8342012E7BDE8FC9FC9
:1018A0008800024010040240085402582DE9F05FFD
:1018B000044600F0EDFA002C07467DD0E24E0221EE
:1018C00020684FF00308DFF884934FF00005DFF83D
:1018D00080A3B042DFF87CB334D0DB4A18329042A8
:1018E00030D048452ED050452CD058452AD0D94A22
:1018F0001832904226D0D74A3032904222D0D54A70
:10190000483290421ED0D44A90421BD0D24A18325C
:10191000904217D0D04A3032904213D0CE4A48324B
:1019200090420FD0CC4A603290420BD0CA4A7832F3
:10193000904207D0C84A9032904203D0C64AA8329B
:1019400090427DD184F83510B04284F834502ED0C6
:10195000BD49183188422AD0484528D0504526D064
:10196000584524D0BB491831884220D0B94930317C
:1019700088421CD0B7494831884218D0B6498842BD
:1019800015D0B5491831884211D0B3493031884259
:101990000DD0B1494831884209D0AF496031884201
:1019A00005D0AD497831884201D0AB49903101680A
:1019B00021F00101016008E025E100BF00F068FAB4
:1019C000C01B052801D920211AE120680068C00742
:1019D000F4D1D4E902032168103418438E4694E808
:1019E0008410D4E9033809683A4310439B4A40EA1B
:1019F0000C00676918431140103C40EA0800042FAE
:101A000040EA010003D1D4E90B1211430843616895
:101A1000A1F12902052A0BD9163A032A08D9083A56
:101A2000012A05D9083A032A02D97439032901D8B1
:101A300040F48010CEF800002068676A406900E03A
:101A400020E0042F20F0070047EA00070DD1D4E979
:101A50000A01074349B12046FEF768FE28B140203D
:101A60006065012184F83510CDE02068476120468B
:101A7000FEF77AFD94F85C203F2102F01F029140AE
:101A8000816055E0764A90421BD0754B14339842E2
:101A900017D0734B2833984213D0714B3C33984284
:101AA0000FD06F4B503398420BD06D4B643398423C
:101AB00007D06B4B7833984203D0694B8C339842F4
:101AC0007ED184F8351084F83450664B0168A268E2
:101AD00001EA030E402A74D0802A73D05FF000021E
:101AE000D4E90378D4E9053142EAD70242EAD808BA
:101AF0005B4AD4E9077C48EAD30848EAD10141EAC5
:101B0000D701524241EA1C11142341EA0E0101603F
:101B100020681044B0FBF3F08000E0652046FEF73B
:101B200023FD94F85C20012102F01F0291404160E6
:101B30002068B04257D044491831884253D04845B4
:101B400051D050454FD058454DD042491831884268
:101B500049D040493031884245D03E4948318842D9
:101B600041D03D4988423ED03B49183188423AD065
:101B700039493031884236D037494831884232D0ED
:101B80003549603188422ED03349783188422AD095
:101B900031499031884226D02F49A831884222D03D
:101BA0002F4988421FD02E49143188421BD02C491E
:101BB0002831884217D02A493C31884213D002E0AC
:101BC0001DE017E018E02649503188420BD0244927
:101BD0006431884207D022497831884203D02049B5
:101BE0008C31884229D12046FEF718FDA068802854
:101BF0000CD00CE0102273E74FF4804270E74021D4
:101C0000616584F835800120BDE8F09F6560216E34
:101C100020790860D4E9190141606068401E0728F6
:101C200008D82046FEF748FDE06E0560D4E91C01A7
:101C3000416002E0E566256765670120656584F817
:101C400035000020E0E700001000024040000240A4
:101C50005800024070000240100402403F8010FE15
:101C6000085402580F00FEFF2DE9F84F03247A4D67
:101C700000234FF001094FF0B04B4FF00F0AE4E0A2
:101C800009FA03F6324078D00F7907F00307012FE5
:101C900001D0022F1AD187684FEA430ED1F80CC049
:101CA00004FA0EF827EA08070CFA0EFC4CEA070CB7
:101CB000C0F808C0476891F804C0B743CCF3001CD3
:101CC0000CFA03FC4CEA070CC0F804C00E79F6438A
:101CD000B6070BD0C6684FEA43088F6804FA08FCC1
:101CE00026EA0C0607FA08F73743C7600E7906F0B4
:101CF0000306022E12D1DE080F694FEA437C00EB87
:101D00008606B646366A4FEADC6C0AFA0CF807FA21
:101D10000CF726EA08063743CEF820700F790668DC
:101D20004FEA430807F0030704FA08FC07FA08F72C
:101D300026EA0C06374307604E6816F4403F1CD075
:101D4000464E376847F00207376036689F0706F04F
:101D50000206009623F0030606F1B046B6463F0F92
:101D6000D6F80864DFF8F8800AFA07FC404526EA4E
:101D70000C0603D14FF0000C3AE065E0DFF8E4C058
:101D8000604502D14FF0010C32E0DFF8DCC0604565
:101D900002D14FF0020C2BE0DFF8D0C0604502D139
:101DA0004FF0030C24E0DFF8C8C0604502D14FF0CB
:101DB000040C1DE0DFF8BCC0604502D14FF0050CFB
:101DC00016E0DFF8B4C0604502D14FF0060C0FE01A
:101DD000DFF8A8C0604502D14FF0070C08E0DFF83B
:101DE000A0C0604502D14FF0090C01E04FF00A0C91
:101DF0000CFA07FC4CEA060CCEF808C44F68DBF876
:101E00000060FF0226EA020600D516435F46CBF8C3
:101E10000060D1F804C0DBF804605FEA8C2C26EA8D
:101E2000020600D516437E606E684F6826EA0206F9
:101E3000BF0300D516436E602E684F6826EA02067F
:101E4000FF0300D516432E605B1C0A6832FA03F6C6
:101E50007FF416AFBDE8F88F80000058F4440258B4
:101E6000000002580004025800080258000C0258F2
:101E7000001002580014025800180258001C0258A2
:101E8000002402580AB1816170470904FBE7000091
:101E900001488068704700000000002430B590F8C9
:101EA0004120202A24D190F84020012A20D001236B
:101EB00080F84030242280F841202023002402684A
:101EC000156825F0010515600268156825F4805530
:101ED0001560026815680D43156001680A6842F0D4
:101EE00001020A6080F8413080F84040002030BD97
:101EF000022030BD30B590F84120202A22D190F840
:101F00004020012A1ED0012380F84030242280F88E
:101F10004120202400250268136823F00103136088
:101F20000268136823F4706343EA012111600168B9
:101F30000A6842F001020A6080F8414080F840508F
:101F4000002030BD022030BD70B5040004D094F8EC
:101F50004100002510B106E0012070BD204684F844
:101F6000405000F051F8242084F8410020680168B6
:101F700021F001010160D4E9001020F070600861D7
:101F80002068816821F400418160E06821680128AF
:101F9000A06830D040F404408860E06802282068DF
:101FA00041682BD021F40061416020682021154A4E
:101FB0004368134343602068C26822F40042C26051
:101FC00054F8106B0DCC104340EA0320F06054F835
:101FD0001C3CD4E900021043186054F81C0D026840
:101FE00042F001020260656484F84110256384F8C0
:101FF0004250002070BD40F40040CDE741F4006144
:10200000D2E700000080000210B5B4B004461421ED
:102010002EA8FEF7CBF9B8216846FEF7C7F9194993
:10202000206888422BD10020209008210446CDE969
:102030000010684600F0AAFC08B1FEF7A2FB1248A7
:10204000016841F00201016000682EAB122100F02E
:10205000020033904FF44060042283E813000B48E1
:102060002EA9CDE93142FFF7FFFD0748083001688E
:1020700041F480010160006800F48000339034B0C6
:1020800010BD000000580040E0440258000402580F
:102090000248816802781144816070470000002482
:1020A000032010B500F0D4F801F070FA0F4A10497F
:1020B00014681368C4F3032203F00F038A5CC95C3D
:1020C00002F01F0201F01F01D0400A4A20FA01F17C
:1020D0001160094908600F2000F010F808B10120D4
:1020E00010BD00F079F8002010BD0000184402581F
:1020F0009A4A0008100000240C00002470B50D4D11
:1021000004462878A0B14FF47A71B1FBF0F00A4987
:102110000968B1FBF0F001F068FD48B9102C07D256
:1021200000222146501E00F073F800206C6070BD44
:10213000012070BD000000240C000024154BF0B5F8
:10214000083B427813491A600B680A1F23F0010309
:102150000B6043681360057BC67A827A437B2D0748
:10216000847B45EA0665C77B90F809C0067A90F83B
:1021700000E045EAC24040EA834040EA444040EA89
:10218000074040EA0C2040EA460040EA0E000860A2
:10219000F0BD0000A0ED00E0BFF35F8F0448002118
:1021A0000368034A23F48033036070321160704780
:1021B00024ED00E0074A40F001000649703210604B
:1021C000086840F480300860BFF34F8FBFF36F8F13
:1021D0007047000024ED00E0054808B5016841F0B3
:1021E00002010160006800F00200009008BD0000DC
:1021F000F4440258002809DB410900F01F0289005D
:10220000012001F1E0219040C1F800017047000079
:102210000E4BF0B41B680D46C3F30223C3F107064F
:10222000042E00D90426191D072901D2002300E03D
:10223000DB1E012404FA06F19C40491E2940641E5D
:10224000994014402143F0BC02F0C7BB0CED00E004
:10225000064900F0070210B54FF6FF040868044B6A
:10226000204040EA02201843086010BD0CED00E059
:102270000000FA052DE9F0411F4C0546206800F0EA
:1022800007000628206804D000F03F00A8422AD1A9
:1022900030E020F03F0028432060FFF7F9FD164FA3
:1022A0004FF47A780646083F05E000BFFFF7F0FDDF
:1022B000801B404517D83868C0438004F6D41E2DD3
:1022C00005D02E2D03D01D2D01D02D2D12D1FFF7BD
:1022D000DFFD11270546464608E000BFFFF7D8FDA1
:1022E000401BB04202D90120BDE8F081206837EAE6
:1022F0000000F3D10020F7E70C48025810B501F0B8
:1023000011F905490968054AC1F30211515C01F050
:102310001F01C84010BD0000204402589A4A00081E
:102320004A4930B5494C0B1D0A680C3409681D68D0
:10233000246802F0030305F00102C1F30511C4F3A0
:10234000CC04002914FB02F200EE102AF8EE400A39
:1023500076D0414A9FED3E1ADFED3E1AB7EE000AF5
:1023600023B1012B5AD0022B18D15CE0374C283C0A
:1023700023689B0612D5394B246801EE901A116828
:10238000C4F3C104F8EE612AE34001EE903AC1F3D0
:102390000801F8EE611A81EEA22A07E002EE101A97
:1023A0001168F8EE422A81EEA22A45E001EE901A69
:1023B0001168F8EE611A40EE811A71EE800A62EE41
:1023C000200AC1F3462101EE101AB8EE411A31EE8F
:1023D000001AC0EE811ABCEEE11A80ED001A1168F5
:1023E000C1F3064101EE101AB8EE411A31EE001A9F
:1023F000C0EE811ABCEEE11A80ED011A1168C1F33A
:10240000066101EE101AB8EE411A31EE000A80EEB4
:10241000801ABCEEC10A80ED020A30BD01EE901AAE
:10242000DFED0F2A03E001EE901ADFED0E2A1168AE
:10243000F8EE611A82EEA12AC1F30801B6E7FFE7C0
:10244000002101604160816030BD000028440258D5
:10245000000000390024744C304402580090D0032E
:102460000024744A20BCBE4B494930B5484C0B1D72
:102470000A68143409681D68246802F00303C5F370
:102480000012C1F30531C4F3CC04002914FB02F29D
:1024900000EE102AF8EE400A75D03F4A9FED3D1A33
:1024A000B7EE000A6BB1DFED3D1A012B01D0022B14
:1024B00064D002EE101A1168F8EE422A81EEA22AC8
:1024C00021E0334C283C23689B0612D5344B24680A
:1024D00001EE901A1168C4F3C104F8EE612AE340DA
:1024E00001EE903AC1F30801F8EE611A81EEA22ADA
:1024F0000BE001EE901ADFED2B2A00BFF8EE611A17
:10250000116882EEA12AC1F3080101EE901A116848
:10251000F8EE611A40EE811A71EE800A62EE200A2E
:10252000C1F3462101EE101AB8EE411A31EE001A3D
:10253000C0EE811ABCEEE11A80ED001A1168C1F3F9
:10254000064101EE101AB8EE411A31EE001AC0EE43
:10255000811ABCEEE11A80ED011A1168C1F306611F
:1025600001EE101AB8EE411A31EE000A80EE801A20
:10257000BCEEC10A80ED020A30BD04E001EE901A03
:10258000DFED092ABAE70021016041608160F3E7CD
:102590002844025800000039384402580024744A84
:1025A0000090D0030024744C20BCBE4B494930B588
:1025B000484C0B1D0A681C3409681D68246802F029
:1025C0000303C5F30022C1F30551C4F3CC04002971
:1025D00014FB02F200EE102AF8EE400A75D03F4AD2
:1025E0009FED3D1AB7EE000A6BB1DFED3D1A012BEE
:1025F00001D0022B64D002EE101A1168F8EE422AC4
:1026000081EEA22A21E0334C283C23689B0612D598
:10261000344B246801EE901A1168C4F3C104F8EE3B
:10262000612AE34001EE903AC1F30801F8EE611A25
:1026300081EEA22A0BE001EE901ADFED2B2A00BFFB
:10264000F8EE611A116882EEA12AC1F3080101EEC9
:10265000901A1168F8EE611A40EE811A71EE800A44
:1026600062EE200AC1F3462101EE101AB8EE411ABB
:1026700031EE001AC0EE811ABCEEE11A80ED001AAC
:102680001168C1F3064101EE101AB8EE411A31EE9D
:10269000001AC0EE811ABCEEE11A80ED011A116831
:1026A000C1F3066101EE101AB8EE411A31EE000ACC
:1026B00080EE801ABCEEC10A80ED020A30BD04E053
:1026C00001EE901ADFED092ABAE7002101604160AE
:1026D0008160F3E728440258000000394044025862
:1026E0000024744A0090D0030024744C20BCBE4BDC
:1026F0002DE9F04FA14A0546DFF87CA280F48070F6
:10270000DFF8809289B013119F4C08439C48AAF1CE
:1027100004064FF0805C4FF0005828D0DFF858B224
:1027200085F480670F430BF1080B4FD085F40067E9
:102730000F4360D085F480570F4372D085F4005763
:102740000F434FF480394FF4003E69D085F40027E1
:102750000F4373D085F480370F4370D085F48046E3
:102760000E436DD085F400420A436AD02AE0DAF8BD
:10277000001001F00701052924D2DFE801F0F9AAD1
:102780006A259F0006A8FFF7CBFD079809B0BDE8B2
:10279000F08F6846FFF768FE0098F7E703A8FFF799
:1027A00005FF0398F2E72068C0F3C10022FA00F0A9
:1027B000ECE72268D2056ED561456CD11846E5E795
:1027C0004145E3D00020E1E74846DFE7DBF80010B1
:1027D00001F46001B1F5800F3BD005DC00294AD03F
:1027E000B1F5001FEED174E0B1F5C00FECD0B1F53A
:1027F000000FE7D162E0DBF8001001F0E061B1F119
:10280000007F26D004DCB1B3B1F1807FDAD160E083
:10281000B1F1407FD8D0B1F1806FD3D14EE000E06C
:102820001BE0DAF8001001F4E041B1F5005F10D0D0
:1028300008DC01B3B1F5805FC4D14AE035E058E06F
:1028400065E088E0B1F5405FBED0B1F5804FB9D109
:1028500034E020688000B5D5A0E7DAF8001001F474
:10286000E021B1F5403F6DD006DC61B149457BD038
:102870007145A7D158E07BE0B1F5802F66D0B1F566
:10288000A02F9FD10DE000F06FFE7FE76846FFF7B5
:10289000EBFD01987AE728E003A8FFF787FE04988C
:1028A00074E7216889038AD48CE7DBF8001011F4FF
:1028B00040310ED0494510D0714583D1316825682B
:1028C00001F040516D077FF574AF00297FF471AFBF
:1028D00069E720680001E7D55BE720688000E3D561
:1028E00003A8FFF763FE059850E722689203DBD543
:1028F00066E7306810F480303AD04845D4D120687B
:102900000001D1D56846FFF7AFFD02983EE7DBF83E
:10291000001001F0E041B1F1405F13D008DC71B16B
:10292000614521D04145BFD120688000B4D449E73A
:10293000B1F1804F0AD0B1F1A04FB2D042E7FFF71A
:10294000DDFC23E720684007AED52CE72068C005F2
:10295000AAD533E708E0DAF8001011F04051A0D012
:10296000614505D041459FD1206800018ED429E7FB
:102970002068800198D505E7504402580090D003A4
:1029800040787D010080BB00004402582DE9FE4FD5
:102990000546DFF800A450F8081B0024FD4FC9438A
:1029A000019005F1280026460AF1240A009008014A
:1029B0001DD4686E50B1B0F5801F0CD0B0F5001F6B
:1029C0000ED0B0F5401F1ED001240FE0386840F44F
:1029D0000030386017E00198022101F023FC03E089
:1029E0000098022101F0AEFC04000CD02646288895
:1029F000C043C00523D4A86D05281ED2DFE800F02F
:102A00000C11161B1B006A6EDAF8001021F440113D
:102A10001143CAF80010EAE7386840F40030386023
:102A200009E00198002101F0FDFB03E0009800217E
:102A300001F088FC0446C4B100E001242646288841
:102A4000DFF85083C04308F12C0840052FD4D5F897
:102A5000A400B0F5C00F28D010DCB8B1B0F5001F4D
:102A600019D0B0F5800F0FD11AE0AA6DDAF8001076
:102A700021F007011143CAF80010E0E7B0F5000F9C
:102A800013D0B0F5200F10D001240FE0386840F4C7
:102A90000030386009E00198002101F0C3FB03E039
:102AA0000098002101F04EFC044694B12646288887
:102AB000C043000530D4D5F8A800B0F1407F29D03C
:102AC00011DCC0B1B0F1807F1AD0B0F1007F10D11D
:102AD0001BE0D5F8A420D8F8001021F460011143C0
:102AE000C8F80010E3E7B0F1806F13D0B0F1A06F29
:102AF00010D001240FE0386840F40030386009E05D
:102B00000198002101F08EFB03E00098002101F004
:102B100019FC044694B126462868DFF878B2C04311
:102B20000BF1200B80011FD4E86CD8B110280FD016
:102B3000202812D0302815D0012414E0D5F8A82080
:102B4000D8F8001021F0E0611143C8F80010E3E765
:102B5000386840F40030386004E00198022101F048
:102B600061FB044674B126462888C043C0042BD4B8
:102B7000E86DB0F5005F20D00DDCA0B1B0F5805F4E
:102B80000FD115E0EA6CDBF8001021F030011143A1
:102B9000CBF80010E8E7B0F5405F13D0B0F5804FF8
:102BA00010D001240FE0386840F40030386009E0AC
:102BB0000198002101F036FB03E00098002101F0AC
:102BC000C1FB04468CB126462888C043800429D422
:102BD000286EB0F5403F23D010DC08B3B0F5803F3D
:102BE00014D0B0F5003F0FD115E0EA6DDAF800100F
:102BF00021F4E0411143CAF80010E5E7B0F5802F59
:102C00000ED0B0F5A02F0BD001240AE001980121CD
:102C100001F008FB03E00098012101F093FB04465A
:102C200094B126462888C04340042AD4D5F8AC0085
:102C3000B0F1405F23D010DC08B3B0F1805F14D056
:102C4000B0F1005F0FD115E02A6EDAF8001021F420
:102C5000E0211143CAF80010E4E7B0F1804F0ED034
:102C6000B0F1A04F0BD001240AE00198012101F03E
:102C7000D9FA03E00098012101F064FB044674B125
:102C800026462888C04300041FD4E86ED8B1B0F1AE
:102C9000805F0ED0B0F1005F10D0012414E0D5F8B1
:102CA000AC20D8F8001021F0E0411143C8F8001022
:102CB000E7E7386840F40030386004E0019801210B
:102CC00001F0B0FA044674B126462868C043C0013A
:102CD0001ED4A86CD0B101280ED0022811D0032830
:102CE00014D0012413E0EA6EDAF8001021F040510C
:102CF0001143CAF80010E8E7386840F40030386043
:102D000004E00198022101F08DFA04466CB12646D8
:102D10002868C043400255D41F48016841F48071BF
:102D20000160FFF7B5F881460EE0AA6CDBF80010F1
:102D300021F003011143CBF80010E9E7FFF7A8F8F1
:102D4000A0EB090064283BD813480068C005F5D5FE
:102D5000BCBBDFF84090B5F8B01009F14409D9F8D0
:102D6000000001F4407100F44070884211D0D9F89D
:102D70000010D9F8002021F4407142F48032C9F8E3
:102D80000020D9F8002022F48032C9F80020C9F8C8
:102D9000001003E02C44025800480258D5F8B00057
:102DA000B0F5807F19D1FFF773F8029011E000BFF2
:102DB000FFF76EF80299411A41F28830814208D932
:102DC000032426462878DFF81494C043C00721D096
:102DD0003CE0D9F800008007EAD5D5F8B010C1F37F
:102DE00001200328FE480DD0016821F47C510160C8
:102DF000B5F8B020D9F80010C2F30B021143C9F89E
:102E00000010DFE7F74A036802EA111223F47C514D
:102E10001143ECE7A86F182816D005DCA0B10828EC
:102E200008D0102804D10AE020280DD028280BD083
:102E300001240AE00198012101F0F4F903E000986F
:102E4000012101F07FFA044664B126462878C04388
:102E500080071ED4686F062819D2DFE800F0160C30
:102E600011161616AA6FD9F8001021F03801114377
:102E7000C9F80010EAE70198012101F0D3F903E055
:102E80000098012101F05EFA04467CB100E00124C3
:102E900026462878C04340071FD4D5F8900006285E
:102EA00019D2DFE800F0160C111616166A6FD9F861
:102EB000001021F007011143C9F80010E9E701985B
:102EC000012101F0AFF903E00098012101F03AFA85
:102ED0000446A4B100E0012426462878C0438006B9
:102EE0002BD4D5F88C00B0F1405F24D011DC10B3A6
:102EF000B0F1805F15D0B0F1005F10D116E0D5F8C9
:102F00009020D8F8001021F007011143C8F80010F4
:102F1000E3E7B0F1804F0ED0B0F1A04F0BD0012409
:102F20000AE00198002101F07DF903E000980221F8
:102F300001F008FA044694B126462878C0434006BA
:102F40002BD4D5F89800B0F5406F24D011DC10B325
:102F5000B0F5806F15D0B0F5006F10D116E0D5F840
:102F60008C20D9F8001021F0E0411143C9F800107D
:102F7000E3E7B0F5805F0ED0B0F5A05F0BD0012481
:102F80000AE00198002101F04DF903E000980221C8
:102F900001F0D8F9044694B126462878C0430006CB
:102FA0002BD4D5F89C00B0F5C04F24D011DC10B361
:102FB000B0F5005F15D0B0F5804F10D116E0D5F810
:102FC0009820D8F8001021F4E0511143C8F80010FF
:102FD000E3E7B0F5004F0ED0B0F5204F0BD0012441
:102FE0000AE00198002101F01DF903E00098022198
:102FF00001F0A8F9044654B126462878C0430007DA
:103000001ED4D5F88000B0F5805F0AD00FE0D5F867
:103010009C20D8F8001021F460411143C8F800103A
:10302000EBE70098022101F08DF900B10126D5F8F7
:103030008020D9F8001021F440511143C9F8001044
:103040002878C043C00613D4D5F89400B0F5807F2B
:1030500005D10098022101F075F900B10126D5F8DB
:103060009420D8F8001021F440711143C8F80010E2
:103070002868C043000316D4D5F8A00038B1B0F5D5
:10308000803F09D0B0F5003F0BD001240AE0019841
:10309000002101F0C7F803E00098022101F052F985
:1030A00004468CB126462868C043400322D4D5F894
:1030B0008400B0F5801F11D0B0F5001F13D0B0F51B
:1030C000401F15D0012414E0D5F8A020D8F8001036
:1030D00021F440311143C8F80010E4E7386840F4A7
:1030E0000030386004E00098012101F02BF904461B
:1030F0005CB126462868C043C0031CD4286D70B15B
:10310000B0F5803F10D0012414E0D5F88420D9F820
:10311000001021F440111143C9F80010EAE73868A3
:1031200040F40030386004E00198022101F07AF8A0
:103130000446DCB126462868C043800005D40098C8
:10314000022101F0FFF800B101262868C043800386
:103150001BD4E86FB8B1B0F5807F10D0B0F5007F18
:1031600011D0B0F5407F0ED001240DE02A6DDBF8C0
:10317000001021F480311143CBF80010DBE73868F0
:1031800040F4003038607CB326462868C043C00253
:1031900007D42A6FDAF8001021F000411143CAF871
:1031A00000102868C043800207D4AA6EDAF8001025
:1031B00021F080711143CAF800102868C043400014
:1031C00009D40748016821F4004101600168D5F87D
:1031D000B420114301602868C04306E054440258FB
:1031E00010440258CFFFFF001DE007D46A6DDBF8E2
:1031F000001021F040511143CBF800102868C04363
:10320000000208D4D5F88820D9F8001021F4400134
:103210001143C9F8001028790024C04300F00100D0
:10322000204309D00EE0EA6FD9F8001021F4407174
:103230001143C9F80010A8E70198002100F0F2FF3F
:1032400000B106462879C04300F00200204305D1B2
:103250000198012100F0E6FF00B106462879C0433D
:1032600000F00400204305D10198022100F0DAFFAC
:1032700000B106462879C04300F00800204305D17C
:103280000098002101F05EF800B106462879C0439D
:1032900000F01000204305D10098012101F052F800
:1032A00000B106462879C04300F02000044304D151
:1032B0000098022101F046F800B916B10120BDE8DE
:1032C000FE8F0020FBE700002DE9F05F04000F46B1
:1032D0007ED0DFF83882D8F8000000F00F00B84246
:1032E0000CD2D8F8001021F00F013943C8F80010B3
:1032F000D8F8000000F00F00B84269D12078844D62
:1033000040070AD52069296801F07001884204D974
:10331000296821F070010143296020787C4E361D18
:1033200000070AD56069316801F07001884204D94C
:10333000316821F07001014331602078C0060AD560
:10334000A069316801F4E061884204D9316821F450
:10335000E061014331602078DFF8B4B180060BF101
:10336000080B0CD5E1695846DBF8002002F070022A
:10337000914204D9026822F070020A430260207868
:1033800080070AD5E068296801F00F01884204D956
:10339000296821F00F01014329602078C0073ED041
:1033A0005B49A2682868183920F4706010432860CF
:1033B0006068022818D0032819D00968012819D09C
:1033C000490700294ADADFF848A1AAF1080A00E013
:1033D00044E0DAF8002022F007020243CAF8002095
:1033E000FEF756FD814612E009688903E9E709689E
:1033F0008901E6E7C905E4E7FEF74AFDA0EB09010C
:1034000041F28830814202D90320BDE8F09F616813
:10341000DAF8000000F03800B0EBC10FECD12078F2
:1034200080070AD5E068296801F00F01884204D2BC
:10343000296821F00F0101432960D8F800104046A7
:1034400001F00F01B9420BD9016821F00F01394396
:103450000160006800F00F00B84201D00120D4E7FD
:10346000207840070AD52069296801F07001884258
:1034700004D2296821F070010143296020780007F7
:103480000AD56069316801F07001884204D2316860
:1034900021F07001014331602078C0060AD5A0698F
:1034A000316801F4E061884204D2316821F4E061BE
:1034B00001433160207880060CD5E1695846DBF87D
:1034C000002002F07002914204D2026822F07002E1
:1034D0000A43026000F05AF80E492A682B68C2F3CA
:1034E000032203F00F038A5CC95C02F01F0201F0A3
:1034F0001F01D040084A20FA01F111600749086015
:1035000007480068BDE8F05FFEF7F8BD00200052F4
:10351000184402589A4A0008100000240C000024A5
:103520000400002430B500F031F80B4A0B490C4B75
:1035300015681468C5F3032204F00F048A5C095D62
:1035400002F01F0201F01F01D040064A20FA01F1EB
:1035500019601060084630BD184402589A4A0008A5
:10356000100000240C00002400B5FFF7DBFF054924
:103570000968054AC1F30211515C01F01F01C840FE
:1035800000BD00001C4402589A4A0008454970B525
:1035900045480968434B103B11F0380208D001112F
:1035A000082A03D0102A0BD0182A0BD0084670BD69
:1035B00019688906FBD51968C1F3C101C84070BDFF
:1035C0003A4870BD3749374D18310C1D24350A680B
:1035D000096826682D6802F0030406F00102C1F3B1
:1035E0000511C5F3CC0515FB02F200EE102AB8EE6A
:1035F000400AE9B32F4ADFED2E0AB7EE001A6CB18C
:10360000DFED2D1A012C01D0022C43D002EE101A4E
:103610001068F8EE422A81EEA22A1EE01C68A40679
:1036200011D51B6801EE901A1168C3F3C103F8EEBF
:10363000612AD84001EE900AC1F30800F8EE611A41
:1036400081EEA22A0BE001EE901ADFED1C2A00BFEA
:10365000F8EE611A106882EEA12AC0F3080001EEAC
:10366000900AF8EE611A40EE201A31EE810A00E06D
:1036700015E022EE000A1068C0F34620401C00EE60
:10368000900AF8EE600A80EE201ABCEEC10A10EE35
:10369000100A70BD01EE901ADFED092AD8E700206C
:1036A00070BD0000104402580090D00340787D01A6
:1036B00000000039304402580024744A0024744C3D
:1036C00020BCBE4B2DE9F05F04007DD0FF4F207879
:1036D000FE4D1837DFF8F483103DC00748D0D8F806
:1036E0000000396800F03800102815D0182803D1E0
:1036F00001F0030002280FD06068B0F5803F12D0BF
:1037000010B1B0F5A02F18D0286820F480302860C0
:10371000286820F4802009E02868800328D56068A4
:103720000028D2D024E0286840F480302860606807
:1037300088B1FEF7ADFB064609E0286840F480201A
:103740002860F0E7FEF7A4FB801B64287ED8286879
:103750008003F7D50CE0FEF79BFB064605E000BFB3
:10376000FEF796FB801B6428F0D828688003F7D406
:103770002078800756D5D8F80000DFF850933968D4
:1037800010F03800A9F10C090ED0182801D18807D3
:103790000AD0E068A8B3296821F019010143296023
:1037A000FEF776FB064628E02868400702D5E06869
:1037B00000288AD0E168286820F0190008432860B2
:1037C000FEF766FB064606E0D2E000BFFEF760FBB0
:1037D000801B0228BAD828684007F7D5217CD9F881
:1037E000002022F0FE4242EA0161C9F8001019E00F
:1037F000FEF74EFB801B0228A8D828684007F7D5A3
:10380000ECE7FFE7286820F001002860FEF740FBA6
:10381000064604E0FEF73CFB801B022896D8286889
:103820004007F7D42078C00646D5D8F80000DFF866
:103830009C92396800F03800A9F10409082812D0D8
:10384000182805D101F00300012800E0CEE00AD0DD
:10385000E0690028286820D040F080002860FEF74A
:1038600017FB064615E02868C00502D5E0698028E8
:103870007ED194F82010D9F8002022F07C5242EA40
:103880000161C9F8001017E0FEF702FB801B022857
:10389000A0D82868C005F7D5EBE720F080002860A5
:1038A000FEF7F6FA064604E0FEF7F2FA801B02285D
:1038B00090D82868C005F7D42078000729D5834818
:1038C0006169643000298146016811D041F001012D
:1038D0000160FEF7DDFA064605E000BFFEF7D8FA04
:1038E000801B022888D8D9F800008007F6D510E0A0
:1038F00021F001010160FEF7CBFA064605E000BFAA
:10390000FEF7C6FA801B022870D8D9F8000080079D
:10391000F6D42078800623D5A0690028286810D026
:1039200040F480502860FEF7B3FA064605E000BF79
:10393000FEF7AEFA801B022858D828688004F7D515
:103940000EE020F480502860FEF7A2FA064604E05C
:10395000FEF79EFA801B022848D828688004F7D416
:103960002078400751D5DFF86891D9F8001000E0C1
:1039700015E141F48071C9F80010FEF789FA064696
:1039800005E000BFFEF784FA801B64282ED8D9F822
:103990000000C005F6D54D4EA068603601280AD05B
:1039A00008B1052813D0306820F00100306030687D
:1039B00020F0040002E0306840F001003060A068B0
:1039C00041F2883A98B1FEF763FA81460AE030681E
:1039D00040F004003060EEE7FEF75AFAA0EB090170
:1039E000514503D830688007F6D50EE072E0FEF747
:1039F0004FFA814606E000BFFEF74AFAA0EB090144
:103A0000514567D830688007F6D4606A00287CD0BA
:103A1000DFF8B8A0D8F800100AF1200A4FF6F87BBA
:103A20000AF10408C1F3C2010329AAF104096DD007
:103A30000228286820F08070286003D0FEF728FA5A
:103A4000044681E0FEF724FA064604E0FEF720FA79
:103A5000801B022875D828688001F7D4E26A40F2FA
:103A6000F331386854F8283F884340EA021018437D
:103A70003860217B4FF4FE0C22894FF0FE47208AEC
:103A80004902267D521E401EA1F5007189B2C2F383
:103A900008021143761E0CEA00400143484607EA3B
:103AA00006621143CAF80010D9F8001021F0010194
:103AB000C9F80010D8F80030266A23EA0B0343EA5D
:103AC000C601C8F80010D9F8001004E010440258EC
:103AD0000048025835E0A26921F00C011143C9F8F1
:103AE00000100168E26921F00201114301600168E0
:103AF00041F480310160016841F4003101600168E6
:103B000041F480210160016801E06CE020E041F0B7
:103B100001010160286840F080702860FEF7B8F964
:103B2000044604E0FEF7B4F9001B022809D828680F
:103B30008001F7D557E000BFFEF7AAF9001B022865
:103B400002D90320BDE8F09F28688001F4D44AE040
:103B500039680128DAF8000021D0A26A01F00303D5
:103B600093421CD1E26AC1F305118A4217D1216B3D
:103B7000C0F30802491E8A4211D1616BC0F346228C
:103B8000491E91420BD1A16BC0F30642491E9142DE
:103B900005D1E16BC0F30660491E814201D00120CE
:103BA000D0E7A16C4646D8F80000C0F3CC008142B3
:103BB00019D0D9F800004D4620F00100C9F80000E6
:103BC000FEF766F94FEA0007FEF762F9B842FBD04C
:103BD000A26C306820EA0B0040EAC200306028681E
:103BE00040F0010028600020ACE7401EB0F1807F6B
:103BF00010B501D3012010BD4FF0E02460610F210A
:103C0000601700F0EAFE0020A0610721216110BDCD
:103C1000F0B590F83C20012A41D0224E012480F8D2
:103C20003C40022280F83D2002681F4D5368B2429A
:103C3000D2F808C001D0AA4203D14F6823F4700320
:103C40003B430F6823F070031F4357600268B24282
:103C500019D0B2F1804F16D0144B9A4213D0144BA6
:103C60009A4210D0134B9A420DD0AA420BD0124B5D
:103C70009A4208D0114B9A4205D0114B9A4202D079
:103C8000104B9A4204D189682CF08003194391604B
:103C9000002180F83D4080F83C100846F0BD02202D
:103CA000F0BD00000000014000040140000400409D
:103CB00000080040000C0040001800400040014097
:103CC00000E0004000E4004010B586B00446142136
:103CD0006846FCF76BFB0D492068884214D10C48FC
:103CE000016841F00201016000680021032200F038
:103CF0000200059002200092CDE90101CDE90310F8
:103D000004486946FDF7B0FF06B010BD000400404E
:103D1000E04402580004025870B5044690F83C0094
:103D200000260D4601280BD0012084F83C000C2A07
:103D30004AD007DC82B1042A20D0082A06D131E01B
:103D4000022070BD102A53D0142A63D0012600200F
:103D500084F83C00304670BD206800F0A3FC206869
:103D6000816941F0080181612068816921F00401C5
:103D7000816120682A698169114311E0206800F09F
:103D8000E3FC2068816941F40061816120688169F8
:103D900021F48061816120682969826942EA0121F8
:103DA0008161D4E7206800F01BFD2068C16941F003
:103DB0000801C1612068C16921F00401C161206866
:103DC0002A69C169114311E0206800F055FD20689F
:103DD000C16941F40061C1612068C16921F4806159
:103DE000C16120682969C26942EA0121C161AEE767
:103DF000206800F07DFD2068416D41F008014165BB
:103E00002068416D21F00401416520682A69416DF7
:103E1000114311E0206800F0A5FD2068416D41F4D8
:103E2000006141652068416D21F480614165206831
:103E30002969426D42EA0121416588E710B5040015
:103E400003D094F83D0010B107E0012010BD002020
:103E500084F83C00204600F023F8022084F83D005E
:103E60002068211D00F0ACFB012084F8480084F894
:103E70003E0084F83F0084F8400084F8410084F854
:103E8000420084F8430084F8440084F8450084F834
:103E9000460084F8470084F83D00002010BD000073
:103EA00008B500680649884208D10648016841F013
:103EB00002010160006800F00200009008BD0000EF
:103EC00000040040E8440258FEE700EB8100006E69
:103ED00000F0F84070478068C0F3C0007047806809
:103EE000C0F3800070478068C0F38000704710B551
:103EF000042404EAD1540723C1F3045120448B4025
:103F00008A40416999431143416110BD00EB810131
:103F1000034B51F8600F20F00040104308607047D9
:103F20000060025830B58DB0002468462421099401
:103F30000A940B94FCF73AFA2D4808232B4A0121E6
:103F40000425C0E900248460C0E9041304764176A6
:103F5000C56180F820408462C4620463C463046461
:103F600080F844408164FCF771FF08B172B6FEE747
:103F70001F4809A90994FCF707FC08B172B6FEE7CF
:103F80001C48062140F2FF7203928DE81300184886
:103F90006946CDE904548DF82140FCF789FC08B14D
:103FA00072B6FEE70C211448CDE9000110486946BD
:103FB000FCF77EFC08B172B6FEE712210F48CDE98E
:103FC00000010B486946FCF773FC08B172B6FEE7C6
:103FD00018210B48CDE9000105486946FCF768FC4B
:103FE000002801D072B6FEE70DB030BD00200240BF
:103FF000140000240800900C8000501D0000844B29
:104000000000B84F2DE9F04786B014216846FCF750
:10401000CDF94648016841F080010160016801F076
:1040200080010591016841F001010160016801F022
:1040300001010591016841F002010160016801F090
:1040400002010591016841F020010160016801F061
:1040500020010591016841F008010160016801F04B
:1040600008010591016841F00401016000684FF406
:104070008776DFF8BC80002200F00400314605900E
:104080004046FDF7FFFEDFF8AC904FF408470022F2
:1040900039464846FDF7F6FEDFF89CA00022402195
:1040A0005046FDF7EFFE0024694601254046029484
:1040B000CDE90054FDF7D8FD00966946CDE90154DD
:1040C00040460394FDF7D0FD1C4E0420CDE90004CA
:1040D000694630460294FDF7C7FDE8026946CDE91E
:1040E000000417480294FDF7BFFD02204FF4604121
:1040F0000091CDE90104CDE9034569463046FDF75D
:10410000B3FD00976946CDE9015448460394FDF795
:10411000ABFD40200090CDE9015469465046039420
:10412000FDF7A2FD06B0BDE8F0870000E0440258AC
:1041300000000258000C02580008025800040258FF
:10414000001402581248002110B5104C0123114AE6
:104150000460C0E90121C0E9033141618161C161AD
:104160000162FDF7F1FE08B172B6FEE708480021D2
:10417000FDF794FE08B172B6FEE705480021FDF791
:10418000B9FE002801D072B6FEE710BD005800400D
:1041900084000024FFECC01010B58AB000246846EB
:1041A0001C21079408940994FCF700F91A4840F27E
:1041B000E7316322174BC0E9024104618461C0E921
:1041C0000032FFF73BFE08B172B6FEE7124807A9BE
:1041D00007940994FFF71CFD08B172B6FEE7602052
:1041E00040F2F3118DE813000B480822694604944D
:1041F000FFF792FD08B172B6FEE707480C22694648
:10420000FFF78AFD08B172B6FEE70348FFF75CFDD1
:104210000AB010BD00040040D8000024FEE7FEE70D
:10422000704700002DE9F047454D044689464FF0A0
:10423000000A2868C04380070AD0414E283E3068F3
:1042400020F080603060FDF723FE0746B04608E0AE
:104250000120BDE8F08700BFFDF71AFEC01B022851
:1042600067D8D8F800000001F6D4206829684FF418
:10427000FE0721F47C313E0241EA00302860207ABA
:10428000A389B4F804C040022D4D2D495B1E227C49
:10429000ACF1010C1035091DA0F5007080B2521E62
:1042A000CCF3080C07EA034340EA0C00184306EA83
:1042B0000262104328600868626920F0C000104361
:1042C00008600A68A06922F0200202430A60281DE3
:1042D0000A6822F010020A6002684FF6F873E46977
:1042E0009A4342EAC40202600868B9F1000F40F044
:1042F00010020A6011D00868B9F1010F11D040F422
:1043000000100860D8F80000444640F08060C8F80B
:104310000000FDF7BDFD05460DE0086840F40020F3
:10432000EFE740F48010ECE7FDF7B2FD401B0228F8
:1043300001D903208DE720680001F5D5504688E7B4
:10434000284402582DE9F047454D044689464FF070
:10435000000A2868C04380070AD0414E283E3068D2
:1043600020F080503060FDF793FD0746B04608E02E
:104370000120BDE8F08700BFFDF78AFDC01B0228C1
:1043800067D8D8F800008000F6D4208829684FF458
:10439000FE0721F07C713E0241EA00502860207A3D
:1043A000A389B4F804C040022D4D2D495B1E227C28
:1043B000ACF1010C1835091DA0F5007080B2521E39
:1043C000CCF3080C07EA034340EA0C00184306EA62
:1043D0000262104328600868626920F4406010435C
:1043E00008600A68A06922F4007202430A60281D6E
:1043F0000A6822F480720A6002684FF6F873E46972
:104400009A4342EAC40202600868B9F1000F40F41E
:1044100080720A6011D00868B9F1010F11D040F024
:1044200080700860D8F80000444640F08050C8F81A
:104430000000FDF72DFD05460DE0086840F4800002
:10444000EFE740F40000ECE7FDF722FD401B0228F7
:1044500001D903208DE720688000F5D5504688E714
:10446000284402587047FDF713BE000030B59DB0D8
:104470004C216846FBF79AFF202113A8FBF796FF13
:104480000420FDF7F7FE1D48016841F4404101603A
:104490000168002401F440411B9101688904FCD5A6
:1044A00002200A9010230990C20301210C25CDE9B6
:1044B0000012CDE90B03CDE90D10CDE910540F909A
:1044C00068461294FFF7FEF808B172B6FEE713AD26
:1044D00040203F21032285E8160003011A90CDE910
:1044E00016400221CDE9180313A8FEF7EDFE0028BF
:1044F00001D072B6FEE71DB030BD0000184802586A
:104500002748F0B5274A016841F47001016010683E
:1045100000F00F00072804D2106820F00F00C01D23
:10452000106021490020204C10340B681F4D43F0CF
:1045300001030B6020600B682B400B60136803F0D5
:104540000F03072B04D9136823F00F03DB1D13603F
:10455000154C174A1834174B261D371D2060124C76
:10456000154D28343060261D3860371D23603B1DF3
:1045700035601C1D3A60251D2E1D1860331D2260FC
:104580002860326018600A6843F2D204064B0B4D73
:1045900022F4802260330A6018602C60F0BD0000B5
:1045A00088ED00E000200052004402587FEDF6EA5A
:1045B00080020101000202020000FF0100400052DF
:1045C0002DE9F0472D4B4FF0804A2D4D026898425F
:1045D0002C4E2D4F2D4C09D0504507D0A84205D068
:1045E000B04203D0B84201D0A04205D1D1F804C0F6
:1045F00022F070024CEA0202DFF894C0DFF89480E7
:104600009842DFF8949015D0504513D0A84211D0AD
:10461000B0420FD0B8420DD0A0420BD0604509D0B7
:10462000404507D0484505D01C4DA84202D01C4D3E
:10463000A84203D1CD6822F440722A434D6922F08A
:1046400080022A43026098428A68C2620A688262D3
:1046500007D0A04205D0604503D0404501D0484571
:1046600001D109690163012141610169C90703D0D1
:10467000016921F001010161BDE8F08700000140FE
:104680000004004000080040000C0040000401400D
:1046900000400140004401400048014000E000406B
:1046A00000E400402DE9F04FDFF88480214EDFF870
:1046B0008890DFF888B0026A036AB042DFF880A011
:1046C00022F0020C1F4F23F001020262426885694A
:1046D0008B680C6805EA080525F0030543EA0C031E
:1046E00044EA050407D0484505D0584503D0504555
:1046F00001D0B84205D1CD6823F008031D4325F051
:104700000403B04207D0484505D0584503D0504572
:1047100001D0B84205D122F44076D1E905523543A3
:104720002A4342608461496841630362BDE8F08FB7
:104730008FFFFEFF000001400004014000400140E7
:104740000044014000480140F0B5DFF87CE01F4C18
:104750001F4D026A036AA04222F0200623F01003D4
:10476000036242688369D1F808C00F6803EA0E0348
:1047700023F4407E46EA0C134EEA072601D0A842F5
:1047800006D1CF6823F0800343EA071323F04003E8
:10479000A0420AD0A84208D00E4CA04205D00E4C30
:1047A000A04202D00D4CA04207D1D1E9054522F428
:1047B000406242EA840242EA8502426086614968B8
:1047C00081630362F0BD0000FF8FFFFE0000014027
:1047D0000004014000400140004401400048014005
:1047E000F0B5DFF87CE01F4D1F4E026A036AA84255
:1047F00022F4007723F4807303624368C269D1F81E
:1048000008C002EA0E020C6822F0030E47EA0C22EE
:1048100044EA0E0401D0B04206D1CF6822F400620F
:1048200042EA072222F48062A8420AD0B04208D0AD
:104830000E4DA84205D00E4DA84202D00D4DA84203
:1048400007D1D1E9055623F4405343EA051343EA5F
:1048500006134360C4614968C1630262F0BD000091
:104860008FFFFEFF000001400004014000400140B6
:104870000044014000480140F0B5046A026A22F495
:10488000805202624268C36924F40054DFF848C0D1
:104890008E680D6803EA0C03104F23F4407344EA5A
:1048A0000634B84243EA05230BD00D4DA84208D088
:1048B0000C4DA84205D00C4DA84202D00B4DA84289
:1048C00004D14D6922F4804242EA85124260C361FC
:1048D000496801640462F0BDFF8FFFFE00000140E3
:1048E00000040140004001400044014000480140F4
:1048F000F0B5164F164B026A046A984222F400354E
:1049000024F4803303624268436D0E890C6803EA25
:10491000070344EA030445EA06430BD00D4DA842C1
:1049200008D00D4DA84205D00C4DA84202D00C4D28
:10493000A84204D14D6922F4803242EA0522426045
:104940004465496881650362F0BD00008FFFFEFF8A
:1049500000000140000401400040014000440140CB
:1049600000480140F0B5164F164B026A046A98429F
:1049700024F48013036222F400144268436D0E890C
:104980000D6803EA070344EA065443EA05230BD003
:104990000D4DA84208D00D4DA84205D00C4DA8429F
:1049A00002D00C4DA84204D14D6922F4802242EA83
:1049B0008522426043654968C1650462F0BD00001C
:1049C000FF8FFFFE00000140000401400040014055
:1049D0000044014000480140FEE7090700284FEA73
:1049E000116104DB00F1E02080F80014704700F052
:1049F0000F0000F1E02080F8141D70471FB500245F
:104A00000094019402940394FDF7C6FB01208DF8F5
:104A10000C001F218DF8081087228DF809208DF8D1
:104A20000D008DF8000068468DF80A408DF80E40A4
:104A30008DF8014001948DF80B408DF80F40FDF783
:104A40007DFB0420FDF7B6FBFDF72AFBFFF70EFD0B
:104A5000FFF7D8FA0B48016841F0010101600068D6
:104A60000022114600F0010000900B20FDF7D0FB62
:104A70000B20FDF7BFFBFFF755FAFFF78DFBFFF7A4
:104A800061FBFEE7D84402584FF04070E1EE100A97
:104A90007047000610160006101600000000010204
:104AA000030401020304060708090000DC4A0008A9
:104AB000000000241400000008030008DC4A00087D
:104AC000000000200004000024030008F04A000851
:104AD00014000024EC03000024030008010000007F
:104AE00010000000000000000090D0030090D003F0
:04000005080002CD20
:00000001FF
